:100000000C9462000C948A000C948A000C948A0070
:100010000C948A000C948A000C948A000C948A0038
:100020000C948A000C948A000C948A000C948A0028
:100030000C948A000C948A000C948A000C948A0018
:100040000C943C030C948A000C948A000C948A0053
:100050000C948A000C948A000C948A000C948A00F8
:100060000C9486030C948A000000000024002700F2
:100070002A0000000000250028002B0000000000DE
:1000800023002600290004040404040404040202DA
:100090000202020203030303030301020408102007
:1000A0004080010204081020010204081020000012
:1000B0000008000201000003040700000000000027
:1000C00000009E0411241FBECFEFD8E0DEBFCDBFDD
:1000D00011E0A0E0B1E0ECEBF1E102C005900D927F
:1000E000A037B107D9F722E0A0E7B1E001C01D9227
:1000F000A236B207E1F710E0C2E6D0E004C02197D3
:10010000FE010E94D608C136D107C9F70E94C0047B
:100110000C94DC080C94000020912A0281E021322A
:1001200008F040C0809106028111FCCF8091290225
:1001300092E09093060291E0909305029FEF9093D6
:1001400004021092030220930202A9E0B2E0E2EE60
:10015000F1E090E029132DC01092E1019091E101AE
:10016000880F892B8093E1018091E001813029F58E
:100170001092E0018091E1018093BB0085EC8093B7
:10018000BC00809106028230E1F3809104028F3F2F
:10019000B1F0809104028032A1F08091040280339A
:1001A00091F084E01092080210922A021092070245
:1001B00008953D9131939F5FCDCF85EEE0CF80E0F4
:1001C000F1CF82E0EFCF83E0EDCF833081F028F4F0
:1001D000813099F08230A9F008958730A9F08830F5
:1001E000C9F08430B1F4809180008F7D03C080918C
:1001F00080008F7780938000089584B58F7784BDC9
:10020000089584B58F7DFBCF8091B0008F77809368
:10021000B00008958091B0008F7DF9CFCF93DF9328
:10022000282F30E0F901E255FF4F8491F901E6569D
:10023000FF4FD491F901EA57FF4FC491CC23A1F0AD
:1002400081110E94E500EC2FF0E0EE0FFF1FE45853
:10025000FF4FA591B491EC91ED2381E090E009F47A
:1002600080E0DF91CF91089580E090E0FACF1F9376
:10027000CF93DF93282F30E0F901E255FF4F8491AF
:10028000F901E656FF4FD491F901EA57FF4FC491A7
:10029000CC23A9F0162F81110E94E500EC2FF0E08D
:1002A000EE0FFF1FEE58FF4FA591B4918FB7F89452
:1002B000EC91111108C0D095DE23DC938FBFDF9144
:1002C000CF911F910895DE2BF8CF0F931F93CF93FB
:1002D000C82FE82FF0E0E95CFD4F60913902878577
:1002E0000E94370101E010E002C0000F111FCA9503
:1002F000E2F7C0E080914E02C81788F4EC2FF0E0DE
:10030000E95CFD4F828D90E080239123892B29F0B9
:100310006091370287810E943701CF5FEBCFCF9189
:100320001F910F910895CF93DF93C82FD0E0809154
:100330004E02D81758F4ED2FF0E0E95CFD4F6091C4
:10034000380287810E943701DF5FF1CFEC2FF0E0A8
:10035000E95CFD4F60913A028785DF91CF910C9463
:1003600037011F93CF93DF93C82FD0E0C95CDD4FD7
:10037000609137028F810E94370110E06A96809168
:100380004F021817A8F4E12FF0E0888190E0012EC9
:1003900002C0959587950A94E2F780FF07C0E95C53
:1003A000FD4F6091390287850E9437011F5FE7CFBB
:1003B000DF91CF911F910895CF93DF93C82FD0E0A5
:1003C00080914F02D81758F4ED2FF0E0E95CFD4F13
:1003D00060913A0287850E943701DF5FF1CFEC2FF1
:1003E000F0E0E95CFD4F609138028781DF91CF91A9
:1003F0000C943701CF93DF9390E0FC01E656FF4F5A
:1004000024918A579F4FFC0184918823D1F090E07A
:10041000880F991FFC01E859FF4FA591B491FC0189
:10042000EE58FF4FC591D491623071F49FB7F894A4
:100430003C91822F809583238C93E8812E2B2883F7
:100440009FBFDF91CF9108958FB7F894EC912E2B39
:100450002C938FBFF6CF8230910538F0880F991F0B
:10046000880F991F05970197F1F708953FB7F89402
:100470008091B8019091B901A091BA01B091BB01EE
:1004800026B5A89B05C02F3F19F00196A11DB11DEF
:100490003FBFBA2FA92F982F8827BC01CD01620F2B
:1004A000711D811D911D42E0660F771F881F991FE6
:1004B0004A95D1F708958F929F92AF92BF92CF92B3
:1004C000DF92EF92FF920E9436024B015C0182E3C1
:1004D000C82ED12CE12CF12C0E9436026819790922
:1004E0008A099B09683E734081059105A8F321E0C4
:1004F000C21AD108E108F10888EE880E83E0981E40
:10050000A11CB11CC114D104E104F10429F7FF902E
:10051000EF90DF90CF90BF90AF909F908F90089515
:1005200085ED8093BC008091BC0084FDFCCF1092CF
:1005300006020895613298F420910602243089F46D
:1005400060939001282FA0E7B1E0FC018E2F821B61
:10055000861710F080E0089581918D93F7CF81E0A8
:10056000089582E008950895E091BD018091BC0155
:10057000E81730F4F0E0E254FE4F808190E00895F7
:100580008FEF9FEF08959091BD018091BC012FEFF7
:100590003FEF981748F4E92FF0E0E254FE4F208136
:1005A00030E09F5F9093BD01C90108958091BC0127
:1005B0009091BD01891B990B0895CF92DF92EF9224
:1005C000FF920F931F93CF93DF937C01CB018A019E
:1005D00020910702222389F0EB016B01C40ED51E86
:1005E000CC15DD0569F06991D701ED91FC91019081
:1005F000F081E02DC7010995F3CF642F0E949A0284
:10060000C801DF91CF911F910F91FF90EF90DF9084
:10061000CF900895CF93DF931F92CDB7DEB7698354
:10062000209107022223F9F020912A02203258F06B
:1006300021E030E0FC013383228390E080E00F90E2
:10064000DF91CF91089580910802E82FF0E0E75FF5
:10065000FD4F998190838F5F8093080280932A02D7
:1006600081E090E0ECCF61E0CE0101960E949A0219
:10067000F7CF90E080E008951F920F920FB60F928F
:1006800011242F933F938F939F93AF93BF938091A8
:10069000B4019091B501A091B601B091B70130912C
:1006A000B30123E0230F2D3758F50196A11DB11D8D
:1006B0002093B3018093B4019093B501A093B60148
:1006C000B093B7018091B8019091B901A091BA019E
:1006D000B091BB010196A11DB11D8093B80190930B
:1006E000B901A093BA01B093BB01BF91AF919F91A3
:1006F0008F913F912F910F900FBE0F901F901895E3
:1007000026E8230F0296A11DB11DD2CF1F920F9292
:100710000FB60F9211242F933F934F935F936F93D4
:100720007F938F939F93AF93BF93EF93FF938091AA
:10073000B900887F803609F44AC0F0F5883209F4A0
:10074000A5C018F5803109F499C0B8F4882309F4DC
:10075000F2C0883009F492C0FF91EF91BF91AF9140
:100760009F918F917F916F915F914F913F912F91C9
:100770000F900FBE0F901F901895883109F486C016
:10078000803251F78093040214C0803409F49BC076
:1007900040F48033B9F38833F9F68093040285EC92
:1007A000AEC0803509F483C0883509F494C088341C
:1007B00099F60E949002D0CF883909F48AC038F5A2
:1007C000883729F050F4883611F0803729F683E015
:1007D000809306021092B20155C0883809F479C09E
:1007E000803919F0803809F0B7CF8091B20180329A
:1007F00008F06FC0E091B20181E08E0F8093B201EA
:100800008091BB00F0E0EE56FE4F80833BC0803B02
:1008100039F0D0F4803A09F477C0883A09F09CCFD7
:1008200084E0809306021092910110929001F0E012
:10083000E0E009958091900181110FC081E08093E3
:1008400090011092700109C0803C09F4A8CF883C47
:1008500009F4A5CF883B09F07FCFE091910181E0B9
:100860008E0F80939101F0E0E059FE4F80818093DC
:10087000BB00909191018091900129C08091E1018C
:100880008093BB0085EC8093BC0066CF90910302FF
:1008900080910202981758F5E091030281E08E0FD3
:1008A00080930302F0E0EE51FE4F8081E9CFE091AA
:1008B000030281E08E0F809303028091BB00F0E081
:1008C000EE51FE4F808390910302809102029817AF
:1008D000C8F285E8D8CFE091030281E08E0F8093C3
:1008E00003028091BB00F0E0EE51FE4F80838091C7
:1008F000050281115ECF81E08093E00184EA80935C
:10090000BC001092060228CF8091B201803230F4F0
:10091000E091B201F0E0EE56FE4F10820E9490028C
:100920006091B20170E082E991E0F0E0E0E00995C9
:100930001092B20134CF109204023BCFEBE2F2E00E
:100940001382128288EE93E0A0E0B0E08483958366
:10095000A683B78382E691E091838083E7E3F2E0A8
:1009600080ED97E097A386A311A610A612A6178A7A
:10097000118E12A213A214A215A214821582089538
:10098000CF93DF93CDB7DEB729970FB6F894DEBFCC
:100990000FBECDBF789484B5826084BD84B581607C
:1009A00084BD85B5826085BD85B5816085BD80913A
:1009B0006E00816080936E001092810080918100B2
:1009C00082608093810080918100816080938100AA
:1009D000809180008160809380008091B10084606C
:1009E0008093B1008091B00081608093B0008091CD
:1009F0007A00846080937A0080917A00826080938C
:100A00007A0080917A00816080937A0080917A00E8
:100A1000806880937A001092C1001092BD011092FC
:100A2000BC011092080210922A021092060211E0F4
:100A3000109305021092E00161E082E10E9437010B
:100A400061E083E10E9437018091B9008E7F80933D
:100A5000B9008091B9008D7F8093B90088E48093BC
:100A6000B80085E48093BC0010933B0210923C02D6
:100A700010923D0284E080934E0288E080934F0202
:100A800010923702109339021093380210923A02F2
:100A9000E0E0F1E0A6E4B2E081918D9321E0E8305E
:100AA000F207D1F78091080180933E0280910901FD
:100AB00080933F0280910A018093400280910B0154
:100AC0008093410210E080914E02181798F4812F14
:100AD00090E0AC01495C5D4F7A0161E0FA018781E9
:100AE0000E94FA0160913802F70187810E94370164
:100AF0001F5FE9CF10E080914F02181750F09091DE
:100B00004E02E1E5F2E080E09817B1F011928F5FBC
:100B1000FBCF812F90E09C01295C3D4F790161E082
:100B2000F90187850E94FA0160913A02F7018785F1
:100B30000E9437011F5FDFCF80E00E94930180E0B9
:100B40000E94DC0162E082E00E94FA0162E083E040
:100B50000E94FA01BB24B39448E6A42EB092070287
:100B6000A09229021092080210922A0260E08BE201
:100B700092E00E940A030E948C008091060281117B
:100B8000FCCFB0920602B0920502FFEFF093040290
:100B90001092030226E020930202B092E1018091BC
:100BA000E101806D8093E1018091E001813009F0E5
:100BB00067C11092E0018091E1018093BB0035ECA8
:100BC0003093BC00809106028130E1F380910302F2
:100BD00097E0873010F490910302E2EEF1E0AEEB83
:100BE000B1E080E0891350C11092BD018093BC0137
:100BF0008BE292E00E94C302E82E8BE292E00E9418
:100C0000C302982F92959F701AE08F70F82E919FD3
:100C1000F00C1124CF2CD12C8BE292E00E94C30265
:100C2000982F929593708F70919F800D11240CE0F6
:100C300010E0882331F0082F10E08D3010F00C50B8
:100C4000110983E00E940E0199249394009709F4FE
:100C5000912C9092DF0120910D01921609F45CC055
:100C6000892B09F415C10F5F1F4F0D30110514F0CA
:100C700001E010E08E2D829587703AE0832E5E2D84
:100C80005F70E52E889DE00C1124B0920702A092BF
:100C900029021092080210922A0260E08BE292E090
:100CA0000E940A038E2D682D0E94CA088295807FBB
:100CB000682F690F8BE292E00E940A038F2D682D46
:100CC0000E94CA088295807F682F690F8BE292E0AC
:100CD0000E940A03802F682D0E94CA088295807F97
:100CE000682F690F8BE292E00E940A0360E08BE2BA
:100CF00092E00E940A0360E08BE292E00E940A0305
:100D000060E08BE292E00E940A0360E08BE292E0F6
:100D10000E940A030E948C0090920D0182E00E94C2
:100D20000E01FF24F394009709F4F12CF092DE01F8
:100D300020910C01F21609F44FC0892B09F4ABC0C5
:100D40006FEFC61AD60A7CE3C716D1041CF0CC2478
:100D5000C394D12CB0920702A092290210920802EB
:100D600010922A0260E08BE292E00E940A0360E0A7
:100D70008BE292E00E940A039AE0E92E8C2D6E2D00
:100D80000E94CA088295807F682F690F8BE292E0EB
:100D90000E940A03802F6E2D0E94CA088295807FD0
:100DA000682F690F8BE292E00E940A0360E08BE2F9
:100DB00092E00E940A0360E08BE292E00E940A0344
:100DC00060E08BE292E00E940A0360E08BE292E036
:100DD0000E940A030E948C00F0920C0124E6209FDE
:100DE000C001219F900D1124C80ED91E0D2C000C9E
:100DF000EE08FF088DB79EB79D838C8390914E02BD
:100E00009983292F30E0F9013197FF83EE834DB7A5
:100E10005EB7421B530B0FB6F8945EBF0FBE4DBFBB
:100E20000DB71EB70F5F1F4F3901660C771C660C9C
:100E3000771CF301EA5CFE4F80819181A281B3812E
:100E4000C816D906EA06FB064CF1802FF8019E2F42
:100E5000981B7981971708F46CC0302F81E592E0D8
:100E6000D8012A2F231B4981241708F07DC0ED915A
:100E7000F0E0E25FFE4F2081FC012193CF01F1CF32
:100E800045EE4093BC009ECE21912D938F5FAACE5C
:100E90000E945B0241CF0E945B029ECFD301AE5CF9
:100EA000BE4F8D919D910D90BC91A02D41E050E0E1
:100EB00060E070E0481B590B6A0B7B0BDB01CA0139
:100EC000C816D906EA06FB060CF4BFCF4F011B83F8
:100ED0000A834CEF4203B001439F700D11247987C0
:100EE0006887E6E3F1E0E815F90531F1F4E08F1ADF
:100EF0009108E885F985E80DF91DE60DF71D2080BC
:100F0000318042805380C701B601A20191010E9445
:100F10006F08EA81FB812193FB83EA83A22FB0E073
:100F2000A20191010E948E08C61AD70AE80AF90A9E
:100F3000D8CF95E291938BCF80913D0281118DCFD7
:100F4000E82FF0E02E813F81E217F3070CF085CF08
:100F5000E00FF11F9081911104C034E230838F5F64
:100F6000EFCF9A30E0F779CF2C813D810FB6F8941E
:100F70003EBF0FBE2DBF80913C02811176C00E9402
:100F80003602409161020091590210915A0220915B
:100F90005B0230915C026B017C01C01AD10AE20A4B
:100FA000F30A00915F0210916002411104C00091A8
:100FB0005D0210915E02012E000C220B330BC01655
:100FC000D106E206F30660F16093590270935A026B
:100FD00080935B0290935C028091500220913B02CF
:100FE000211126C0442391F0109261028091500299
:100FF0008F5F8093500290914F02891710F01092EA
:101000005002809150020E9465010AC00E94930123
:1010100080915F0290916002892B41F3B09261024E
:1010200040E050E0452B09F499CD0E94000092CD9C
:10103000442391F010926102809150028F5F80935F
:10104000500290914E02891710F010925002809138
:1010500050020E94B101E4CF0E94DC0180915F0246
:1010600090916002892B41F3D9CF80913B0210E02F
:1010700081111AC080914F02181790F6812F0E949B
:10108000650180915D0290915E020E942B02812F8A
:101090000E94930180915F0290916002009711F08D
:1010A0000E942B021F5FE6CF80914E02181708F0B6
:1010B000B7CF812F0E94B10180915D0290915E02B5
:1010C0000E942B02812F0E94DC0180915F0290918F
:1010D0006002009711F00E942B021F5FE5CF052EE2
:1010E00097FB1EF400940E94860857FD07D00E94CB
:1010F000990807FC03D04EF40C948608509540954F
:10110000309521953F4F4F4F5F4F089590958095B3
:10111000709561957F4F8F4F9F4F08950E94BB0838
:10112000A59F900DB49F900DA49F800D911D11243B
:101130000895A1E21A2EAA1BBB1BFD010DC0AA1F18
:10114000BB1FEE1FFF1FA217B307E407F50720F030
:10115000A21BB30BE40BF50B661F771F881F991FAB
:101160001A9469F760957095809590959B01AC01F4
:10117000BD01CF010895A29FB001B39FC001A39FFD
:10118000700D811D1124911DB29F700D811D1124C0
:10119000911D0895991B79E004C0991F961708F0D6
:1011A000961B881F7A95C9F780950895EE0FFF1F4B
:0C11B0000590F491E02D0994F894FFCF15
:1011BC000F0405060708090E0A0B0C1001013F0667
:1011CC0073674E6D7D077F6F777C395E79713D76E5
:1011DC00060E763800543F7367506D783E3E0076AD
:1011EC006E5B00408063010000000A000000640098
:1011FC000000E803000010270000A0860100404218
:10120C000F008096980000E1F50500CA9A3B00009B
:10121C0000000A03DD023903B302D602C302B40292
:00000001FF
